:020000040800F2
:1000000000000220DD5F0008CD5B0008D55B000822
:10001000DD5B0008E55B0008ED5B00080000000008
:10002000000000000000000000000000F55B000878
:10003000035C000800000000115C00081F5C000861
:100040002D6000082D6000082D6000082D6000085C
:100050002D6000082D6000082D6000082D6000084C
:100060002D6000082D6000082D6000082D6000083C
:100070002D6000082D6000082D6000082D6000082C
:100080002D6000082D6000082D5C00082D60000820
:100090002D6000082D6000082D6000082D6000080C
:1000A0002D6000082D6000082D6000082D600008FC
:1000B0002D6000082D6000082D6000082D600008EC
:1000C0002D6000082D6000082D6000082D600008DC
:1000D0002D6000082D6000082D600008495C0008B4
:1000E0005D5C00082D6000082D6000082D60000890
:1000F0002D6000082D6000082D6000082D600008AC
:100100002D6000082D6000082D6000082D6000089B
:100110002D6000082D6000082D6000086D5C00084F
:100120002D6000082D6000082D6000082D6000087B
:100130002D6000082D6000082D6000082D6000086B
:100140002D6000082D6000082D6000082D6000085B
:100150002D6000082D6000082D6000082D6000084B
:100160002D6000082D6000082D6000082D6000083B
:100170002D6000082D6000082D60000800000000C0
:080180002D6000082D6000084D
:1001900010B5054C237833B9044B13B10448AFF3C1
:1001A00000800123237010BD6C03002000000000BC
:1001B0001008010808B5034B1BB103490348AFF30E
:1001C000008008BD00000000700300201008010836
:1001D00001F0FF01102A2BDB10F0070F08D010F8F8
:1001E000013B013A8B422DD010F0070F42B3F6D1FC
:1001F000F0B441EA012141EA014122F007047FF015
:1002000000070023F0E80256083C85EA010586EA6B
:10021000010685FA47F5A3FA87F586FA47F6A5FAA7
:1002200087F68EB9EED1F0BC01F0FF0102F00702B3
:1002300032B110F8013B013A83EA010313B1F8D15E
:100240000020704701387047002D06BF354603383F
:10025000073815F0010F07D1013015F4807F02BF78
:10026000013015F4C03F0130F0BC0138704700BFC9
:10027000034613F8012B002AFBD1181A01387047E6
:1002800081F0004102E000BF83F0004330B54FEA47
:1002900041044FEA430594EA050F08BF90EA020FB4
:1002A0001FBF54EA000C55EA020C7FEA645C7FEA47
:1002B000655C00F0E2804FEA5454D4EB5555B8BF6A
:1002C0006D420CDD2C4480EA020281EA030382EADB
:1002D000000083EA010180EA020281EA0303362D6D
:1002E00088BF30BD11F0004F4FEA01314FF4801C40
:1002F0004CEA113102D0404261EB410113F0004F52
:100300004FEA03334CEA133302D0524263EB430308
:1003100094EA050F00F0A780A4F10104D5F1200EA6
:100320000DDB02FA0EFC22FA05F2801841F1000101
:1003300003FA0EF2801843FA05F359410EE0A5F1D5
:1003400020050EF1200E012A03FA0EFC28BF4CF006
:10035000020C43FA05F3C01851EBE37101F00045BC
:1003600007D54FF0000EDCF1000C7EEB00006EEBC9
:100370000101B1F5801F1BD3B1F5001F0CD3490853
:100380005FEA30004FEA3C0C04F101044FEA4452AA
:1003900012F5800F80F09A80BCF1004F08BF5FEA31
:1003A000500C50F1000041EB045141EA050130BD11
:1003B0005FEA4C0C404141EB0101013C28BFB1F523
:1003C000801FE9D291F0000F04BF01460020B1FA6E
:1003D00081F308BF2033A3F10B03B3F120020CDA41
:1003E0000C3208DD02F1140CC2F10C0201FA0CF01F
:1003F00021FA02F10CE002F11402D8BFC2F1200C84
:1004000001FA02F120FA0CFCDCBF41EA0C01904039
:10041000E41AA2BF01EB0451294330BD6FEA040482
:100420001F3C1CDA0C340EDC04F11404C4F120026D
:1004300020FA04F001FA02F340EA030021FA04F37F
:1004400045EA030130BDC4F10C04C4F1200220FAD6
:1004500002F001FA04F340EA0300294630BD21FA14
:1004600004F0294630BD94F0000F83F4801306BFDA
:1004700081F480110134013D4EE77FEA645C18BFCE
:100480007FEA655C29D094EA050F08BF90EA020F65
:1004900005D054EA000C04BF1946104630BD91EA5D
:1004A000030F1EBF0021002030BD5FEA545C05D160
:1004B0004000494128BF41F0004130BD14F580049F
:1004C0003CBF01F5801130BD01F0004545F0FE4113
:1004D00041F470014FF0000030BD7FEA645C1ABF48
:1004E000194610467FEA655C1CBF0B46024650EA7F
:1004F000013406BF52EA033591EA030F41F40021AB
:1005000030BD00BF90F0000F04BF0021704730B530
:100510004FF4806404F132044FF000054FF0000105
:1005200050E700BF90F0000F04BF0021704730B5C6
:100530004FF4806404F1320410F0004548BF40429B
:100540004FF000013EE700BF42004FEAE2014FEAF0
:1005500031014FEA02701FBF12F07F4393F07F4FCB
:1005600081F06051704732F07F4208BF704793F0CE
:100570007F4F04BF41F40021704730B54FF46074E1
:1005800001F0004521F000411CE700BF50EA0102E4
:1005900008BF704730B54FF000050AE050EA01028D
:1005A00008BF704730B511F0004502D5404261EBFD
:1005B00041014FF4806404F132045FEA915C3FF43E
:1005C000D8AE4FF003025FEADC0C18BF03325FEADB
:1005D000DC0C18BF033202EBDC02C2F1200300FA8C
:1005E00003FC20FA02F001FA03FE40EA0E0021FAB1
:1005F00002F11444BDE600BF70B54FF0FF0C4CF49F
:10060000E06C1CEA11541DBF1CEA135594EA0C0F50
:1006100095EA0C0F00F0DEF82C4481EA030621EA8B
:100620004C5123EA4C5350EA013518BF52EA0335C6
:1006300041F4801143F4801338D0A0FB02CE4FF078
:100640000005E1FB02E506F00042E0FB03E54FF0A8
:100650000006E1FB03569CF0000F18BF4EF0010EA0
:10066000A4F1FF04B6F5007F64F5407404D25FEA9C
:100670004E0E6D4146EB060642EAC62141EA55514F
:100680004FEAC52040EA5E504FEACE2EB4F1FD0C91
:1006900088BFBCF5E06F1ED8BEF1004F08BF5FEA0F
:1006A000500E50F1000041EB045170BD06F00046C1
:1006B00046EA010140EA020081EA0301B4EB5C046E
:1006C000C2BFD4EB0C0541EA045170BD41F4801166
:1006D0004FF0000E013C00F3AB8014F1360FDEBF8B
:1006E000002001F0004170BDC4F10004203C35DA67
:1006F0000C341BDC04F11404C4F1200500FA05F3EA
:1007000020FA04F001FA05F240EA020001F000428A
:1007100021F0004110EBD37021FA04F642EB060100
:100720005EEA430E08BF20EAD37070BDC4F10C042A
:10073000C4F1200500FA04F320FA05F001FA04F2EE
:1007400040EA020001F0004110EBD37041F10001DA
:100750005EEA430E08BF20EAD37070BDC4F12005E5
:1007600000FA05F24EEA020E20FA04F301FA05F24D
:1007700043EA020321FA04F001F0004121FA04F2F5
:1007800020EA020000EBD3705EEA430E08BF20EAC5
:10079000D37070BD94F0000F0FD101F000464000FF
:1007A00041EB010111F4801F08BF013CF7D041EA81
:1007B000060195F0000F18BF704703F00046520085
:1007C00043EB030313F4801F08BF013DF7D043EA56
:1007D0000603704794EA0C0F0CEA135518BF95EA0C
:1007E0000C0F0CD050EA410618BF52EA4306D1D193
:1007F00081EA030101F000414FF0000070BD50EAB2
:10080000410606BF1046194652EA430619D094EA3B
:100810000C0F02D150EA013613D195EA0C0F05D125
:1008200052EA03361CBF104619460AD181EA030179
:1008300001F0004141F0FE4141F470014FF0000031
:1008400070BD41F0FE4141F4780170BD70B54FF0CC
:10085000FF0C4CF4E06C1CEA11541DBF1CEA13554C
:1008600094EA0C0F95EA0C0F00F0A7F8A4EB05042E
:1008700081EA030E52EA03354FEA013100F0888025
:100880004FEA03334FF0805545EA131343EA1263EE
:100890004FEA022245EA111545EA10654FEA0026A3
:1008A0000EF000419D4208BF964244F1FD0404F55C
:1008B000407402D25B084FEA3202B61A65EB0305B8
:1008C0005B084FEA32024FF480104FF4002CB6EB75
:1008D000020E75EB030E22BFB61A754640EA0C00F5
:1008E0005B084FEA3202B6EB020E75EB030E22BF35
:1008F000B61A754640EA5C005B084FEA3202B6EB76
:10090000020E75EB030E22BFB61A754640EA9C0034
:100910005B084FEA3202B6EB020E75EB030E22BF04
:10092000B61A754640EADC0055EA060E18D04FEAC2
:10093000051545EA16754FEA06164FEAC30343EA62
:1009400052734FEAC2025FEA1C1CC0D111F4801F2F
:100950000BD141EA00014FF000004FF0004CB6E728
:1009600011F4801F04BF01430020B4F1FD0C88BFC7
:10097000BCF5E06F3FF6AFAEB5EB030C04BFB6EBD2
:10098000020C5FEA500C50F1000041EB045170BDC5
:100990000EF0004E4EEA113114EB5C04C2BFD4EBF2
:1009A0000C0541EA045170BD41F480114FF0000E76
:1009B000013C90E645EA060E8DE60CEA135594EAF2
:1009C0000C0F08BF95EA0C0F3FF43BAF94EA0C0FF5
:1009D0000AD150EA01347FF434AF95EA0C0F7FF46A
:1009E00025AF104619462CE795EA0C0F06D152EABE
:1009F00003353FF4FDAE1046194622E750EA4106A2
:100A000018BF52EA43067FF4C5AE50EA41047FF4B2
:100A10000DAF52EA43057FF4EBAE12E74FF0FF3C17
:100A200006E000BF4FF0010C02E000BF4FF0010CE8
:100A30004DF804CD4FEA410C7FEA6C5C4FEA430C61
:100A400018BF7FEA6C5C1BD001B050EA410C0CBFB0
:100A500052EA430C91EA030F02BF90EA020F002012
:100A6000704710F1000F91EA030F58BF994208BF79
:100A700090422CBFD8176FEAE37040F00100704736
:100A80004FEA410C7FEA6C5C02D150EA013C07D18D
:100A90004FEA430C7FEA6C5CD6D152EA033CD3D0D8
:100AA0005DF8040B704700BF8446104662468C46D2
:100AB0001946634600E000BF01B5FFF7B7FF002805
:100AC00048BF10F1000F01BD4DF808EDFFF7F4FF2E
:100AD0000CBF012000205DF808FB00BF4DF808EDB9
:100AE000FFF7EAFF34BF012000205DF808FB00BFDC
:100AF0004DF808EDFFF7E0FF94BF012000205DF8FE
:100B000008FB00BF4DF808EDFFF7CEFF94BF0120B2
:100B100000205DF808FB00BF4DF808EDFFF7C4FFAB
:100B200034BF012000205DF808FB00BF4FEA410CF4
:100B30007FEA6C5C02D150EA013C0AD14FEA430CD7
:100B40007FEA6C5C02D152EA033C02D14FF0000014
:100B500070474FF0010070474FEA410212F5001252
:100B600015D211D56FF47873B3EB625212D94FEAF4
:100B7000C12343F0004343EA505311F0004F23FADE
:100B800002F018BF404270474FF00000704750EA33
:100B9000013005D111F0004008BF6FF000407047F0
:100BA0004FF00000704700BF4FEA4102B2F1E0434E
:100BB00024BFB3F5001CDCF1FE5C0DD901F0004C44
:100BC0004FEAC0024CEA5070B2F1004F40EB830094
:100BD00008BF20F00100704711F0804F21D113F1C0
:100BE0003872BCBF01F00040704741F480114FEAF9
:100BF0005252C2F11802C2F1200C10FA0CF320FA82
:100C000002F018BF40F001004FEAC1234FEAD3239E
:100C100003FA0CFC40EA0C0023FA02F34FEA430308
:100C2000CCE77FEA625307D150EA01331EBF4FF091
:100C3000FE4040F44000704701F0004040F0FE40AC
:100C400040F40000704700BF53B94AB9002908BFFB
:100C500000281CBF4FF0FF314FF0FF3000F088B983
:100C6000ADF1080C6DE904CE00F006F8DDF804E003
:100C7000DDE9022304B070472DE9F047089D8E4658
:100C800004468846002B4AD18A42174662D9B2FAF6
:100C900082F64EB1C6F1200301FA06F820FA03F3FA
:100CA000B74043EA0808B4404FEA174E1FFA87FCE2
:100CB000B8FBFEF1230C0EFB118843EA084301FB4D
:100CC0000CF29A4209D9FB1801F1FF3080F0EA805A
:100CD0009A4240F2E78002393B449A1AA3B2B2FB2F
:100CE000FEF00EFB102243EA024300FB0CFC9C4585
:100CF00009D9FB1800F1FF3280F0D6809C4540F204
:100D0000D3803B44023840EA0140A3EB0C030021AE
:100D10001DB1F3400022C5E90032BDE8F0878B42E7
:100D200005D90DB1C5E9000100210846F5E7B3FA80
:100D300083F1002946D1734502D3824200F2058136
:100D4000841A6EEB030201209046002DE5D0C5E920
:100D50000048E2E7002A00F09080B2FA82F6002E06
:100D600040F0A4808A1A030C4FEA174E80B2BCB23E
:100D70000121B2FBFEFC0EFB1C2243EA024304FBF2
:100D80000CF29A4207D9FB180CF1FF3802D29A42B2
:100D900000F2E080C4469B1AB3FBFEF20EFB123356
:100DA00040EA034302FB04F49C4207D9FB1802F11A
:100DB000FF3002D29C4200F2CA8002461B1B42EA6C
:100DC0000C40A5E7C1F120068B4022FA06F71F432D
:100DD0000EFA01F420FA06F32EFA06FE4FEA17493E
:100DE000234300FA01F81FFA87FCBEFBF9F01C0C44
:100DF00009FB10EE44EA0E4400FB0CFEA64502FA85
:100E000001F209D93C1900F1FF3A80F09C80A64517
:100E100040F2998002383C44A4EB0E041FFA83FE92
:100E2000B4FBF9F309FB13444EEA044403FB0CFC46
:100E3000A44508D93C1903F1FF3E80F08280A44507
:100E40007FD9023B3C4443EA0040A4EB0C04A0FBE6
:100E500002EC64457346E14662D35FD05DB1B8EB06
:100E6000030264EB090404FA06F622FA01F31E43B6
:100E7000CC40C5E9006400214FE7B1FBF2FC010C56
:100E800041EA0E4180B240EA01423B4638463C46C8
:100E9000B846BE462026B1FBF7F1A2EB080241EAB4
:100EA0000C4166E7014618E710462CE7C6F1200220
:100EB0002EFA02F3B740B14020FA02F24FEA174E81
:100EC0000A43B3FBFEF8BCB20EFB1833110C41EA27
:100ED000034108FB04F9B04089454FEA104380B252
:100EE0003ED9791808F1FF3C01D289451FD8A1EB02
:100EF0000901B1FBFEF909FB04F80EFB191192B2CE
:100F000042EA0142424529D2BA1809F1FF31C4D25E
:100F10004245C2D2A9F102013A44BEE7F0459DD252
:100F2000BEEB02036CEB070C0138E14696E7A7EB3A
:100F300009094944A8F1020CB1FBFEF909FB04F8C8
:100F4000DBE773467FE7504666E70846FDE63B442D
:100F5000023A33E7ACF1020C3B441CE749469CE7FC
:100F6000A1EB0901C446B1FBFEF909FB04F8C4E793
:100F7000704700BF80B58AB004AFF8600B467A6056
:100F8000FB720023FB757B68DBB21B01DBB27B7558
:100F9000FB7A002B01D1682300E06923BB75BB7D80
:100FA0009BB25B0099B20A2302930123019307F1DC
:100FB0001503009301237F22F86806F0D5FA034653
:100FC000FB75FB7D18461837BD4680BD80B588B0DF
:100FD00004AF7860084611461A460346FB700B467C
:100FE000BB7013467B700023FB73FB78002B01D191
:100FF000682300E06923BB73BB7B9BB25B0099B2A3
:10100000BB789AB20A230293012301937B1C0093BD
:101010000123786806F0A8FA0346FB73FB7B1846A9
:101020001037BD4680BD80B588B004AF78600846F3
:1010300011461A460346FB700B46BB7013463B80B5
:101040000023FB73FB78002B01D1682300E06923A8
:10105000BB73BB7B9BB25B0099B2BB789AB20A238D
:1010600002933B880193BB6900930123786806F0E3
:1010700075FB0346FB73FB7B18461037BD4680BDEE
:1010800080B588B004AF78600B46FB701346BB7028
:101090000023FB73FB789AB20A2302930123019386
:1010A000BB1C009301231821786806F05DFA034603
:1010B000FB73FB7B18461037BD4680BD80B58AB0F8
:1010C00004AFF8600B467A60FB720023FB75FB7A75
:1010D0009AB20A230293012301937B6800930123B0
:1010E0001821F86806F03AFB0346FB75FB7D1846AD
:1010F0001837BD4680BD80B58AB004AFF8607B600C
:101100000B46FB7213463B810023FB75FB7A9AB2B8
:101110000A2302933B8901937B68009301231821E2
:10112000F86806F01BFB0346FB75FB7D1846183775
:10113000BD4680BD80B584B000AF786008461146DA
:101140001A460346FB700B46BB7013467B700023A8
:10115000FB73FB78002219467868FFF70BFF034604
:10116000FB73F978802306227868FFF72FFF034688
:10117000FB73C82004F0CEFFF978012306227868BB
:10118000FFF724FF0346FB73F978002307227868F2
:10119000FFF71CFF0346FB73FB78022219467868B1
:1011A000FFF7E8FE0346FB7397F902305B005BB282
:1011B00043F001035BB2DBB2F97801227868FFF7F4
:1011C00005FF0346FB73F978042300227868FFF7D4
:1011D000FDFE0346FB7397F901305B005BB243F001
:1011E00009035BB2DBB2F97814227868FFF7EEFEF0
:1011F0000346FB73F978042311227868FFF7E6FEB3
:101200000346FB73FB78002219467868FFF7B2FEAD
:101210000346FB73F97802230F227868FFF7D6FEA6
:101220000346FB73082231217868FFF729FF034644
:10123000FB7300BF1037BD4680BD000000000000FA
:1012400080B588B002AFF8607B600B46FB72134636
:10125000BB72F97A07F11403009302233722F8686E
:10126000FFF7E1FE3B7D1BB21B021AB27B7D1BB276
:101270001343FB82B7F916305B4207EE903AF8EE63
:10128000E77A7B68C3ED007ABB7A032B48D801A2CA
:1012900052F823F0A5120008BB120008D112000872
:1012A000F91200087B6893ED007ADFED236AC7EE40
:1012B000267A7B68C3ED007A32E07B6893ED007A92
:1012C000DFED1E6AC7EE267A7B68C3ED007A27E061
:1012D0007B681B681846FFF737F913A3D3E900238F
:1012E000FFF7B4FA02460B4610461946FFF75CFCBE
:1012F00002467B681A6013E07B681B681846FFF79C
:1013000023F90BA3D3E90023FFF7A0FA02460B460B
:1013100010461946FFF748FC02467B681A6000BF7A
:1013200000BF1837BD4680BD66666666666640408B
:1013300066666666666630400000034300008342CE
:1013400080B58EB002AFF8607B600B46FB7213462F
:10135000BB72F97A07F12803009306232D22F8685F
:10136000FFF761FE97F828301BB21B021AB297F8FC
:1013700029301BB213431BB23B8497F82A301BB2AF
:101380001B021AB297F82B301BB213431BB27B849B
:1013900097F82C301BB21B021AB297F82D301BB2F3
:1013A00013431BB2BB84B7F9203007EE903AF8EE36
:1013B000E77AC7ED057AB7F9223007EE903AF8EEF2
:1013C000E77AC7ED067AB7F9243007EE903AF8EEDF
:1013D000E77AC7ED077ABB7A032B00F2838001A27C
:1013E00052F823F0F5130008311400086D140008BA
:1013F000A914000897ED057ADFED3C6AC7EE267A5E
:101400007B68C3ED007A97ED067A7B680433DFEDE5
:10141000376AC7EE267AC3ED007A97ED077A7B68C4
:101420000833DFED326AC7EE267AC3ED007A59E061
:1014300097ED057ADFED2E6AC7EE267A7B68C3ED5D
:10144000007A97ED067A7B680433DFED296AC7EEF0
:10145000267AC3ED007A97ED077A7B680833DFEDD3
:10146000246AC7EE267AC3ED007A3BE097ED057A51
:10147000DFED206AC7EE267A7B68C3ED007A97ED30
:10148000067A7B680433DFED1B6AC7EE267AC3ED6C
:10149000007A97ED077A7B680833DFED166AC7EEAE
:1014A000267AC3ED007A1DE097ED057ADFED126A2A
:1014B000C7EE267A7B68C3ED007A97ED067A7B68E3
:1014C0000433DFED0D6AC7EE267AC3ED007A97ED9F
:1014D000077A7B680833DFED086AC7EE267AC3ED2A
:1014E000007A00BF00BF3037BD4680BD0000804697
:1014F000000000460000804500000045000000009C
:1015000090B587B000AF7860396007F1100304220E
:1015100011217868FFF7EFFD07F10F031A46182134
:101520007868FFF7CBFD0023FB752BE0FB7D5B00AC
:10153000013318333B4413F8083C1BB21B021AB2A8
:10154000FB7D5B0018333B4413F8083C1BB213438C
:10155000BB82B7F914301846FEF7E4FF0EA3D3E9B7
:101560000023FFF749F802460B4610461946FB7D5B
:101570009B003A68D418FFF717FB03462360FB7DF6
:101580000133FB75FB7D012BD0D900BF00BF1C3799
:10159000BD4690BDAFF30080333333333333C33FA5
:1015A00080B582B000AF87ED010A97ED010A00F027
:1015B00005F800BF0837BD4680BD000080B582B089
:1015C00000AF87ED010AB2EE021AF2EE0C0A97EDB7
:1015D000010A034800F0C4FD00BF0837BD4680BDC6
:1015E0008803002080B582B000AF1C200AF028F8E4
:1015F00003467B607B6800221A707B6801225A7068
:101600007B6800225A727B6800229A727B684FF0D6
:101610000002DA607B684FF000025A617B680022AA
:101620001A747B6800229A617B6818460837BD46A9
:1016300080BD80B586B000AFF860B9601346FB711D
:10164000BB681B7A0133FB75FB7D184609F0F8FF78
:1016500003463B613B69FA791A703B69581CBB68C9
:101660005968FB7D013B1A460AF005FFFB7D9AB2E3
:101670004FF0FF333969F86808F07FFD386909F0E9
:10168000E7FF00BF1837BD4680BD000080B588B0B9
:1016900000AFF860B9601346FB71FFF7A3FFB861B4
:1016A000BB681B78FB75BB683B61FB7D443B332B00
:1016B00000F21E8101A252F823F000BF8D1700082E
:1016C000F1180008F1180008F1180008F1180008D6
:1016D000F1180008F1180008F1180008DD170008DB
:1016E00095170008F1180008F1180008F118000813
:1016F000F1180008EB1700089D170008A51700084F
:10170000F1180008F1180008B3170008F1180008D4
:10171000F1180008F1180008F1180008F118000885
:10172000F1180008F1180008F1180008F118000875
:10173000F1180008F1180008F1180008F118000865
:10174000F1180008F1180008F1180008F118000855
:10175000F1180008F1180008F1180008F91700083E
:10176000F1180008F1180008F1180008F118000835
:10177000F118000807180008F1180008C117000840
:10178000F1180008F1180008CF170008BB69012202
:101790001A703FE0BB6902221A703BE0BB6900226D
:1017A0005A7237E0BB6901225A72BB6900221A746F
:1017B00030E0BB6901225A72BB6901221A7429E028
:1017C000BB69FF225A72BB6900221A7422E0BB690E
:1017D000FF225A72BB6901221A741BE0BB69012205
:1017E0005A72BB6902221A7414E0BB6901225A7250
:1017F000BB6903221A740DE0BB69FF225A72BB69F0
:1018000002221A7406E0BB69FF225A72BB690322E6
:101810001A7400BFBB691B78002B2FD1FB7D532BA3
:101820002CD03B6901333B6107F1100303227C217B
:10183000184600F065F90346DAB2BB699A723B6953
:1018400001333B6107F1100306227C21184600F0AA
:1018500097F9F0EE407ABB69C3ED037A3B69013337
:101860003B6107F1100306220A21184600F088F9AF
:10187000F0EE407ABB69C3ED057A05E03B690133C0
:101880003B613B690A221A703A69BB68D31ADBB222
:101890000133BB75BB69BA7D1A72BB7D184609F06E
:1018A000CFFE03461A46BB695A60BB695B68BA7DC6
:1018B000B96818460AF0DFFD0F4B1B68002B03D1F7
:1018C0000D4ABB6913600DE00B4B1B68FB6102E026
:1018D000FB699B69FB61FB699B69002BF8D1FB6984
:1018E000BA699A617222B969F868FFF7A2FE00E04E
:1018F00000BF2037BD4680BD9403002080B483B074
:1019000000AF094B1B687B60074B1B68002B04D0A2
:10191000054B1B689B69044A13607B6818460C37AB
:10192000BD465DF8047B70479403002080B400AF8F
:10193000034B1B681846BD465DF8047B704700BF2B
:101940009403002080B483B000AF0A4B1B687B6017
:1019500002E07B689B697B607B68002B03D07B681F
:101960001B78002BF5D17B6818460C37BD465DF817
:10197000047B70479403002080B582B000AF78608C
:1019800039603B685B78002B04D066223968786840
:10199000FFF74FFE3B685B68184609F059FE386850
:1019A00009F056FE00BF0837BD4680BD80B483B045
:1019B00000AF786039607B6893F909203B6893F940
:1019C00009309A4218D17B689A7A3B689B7A9A428E
:1019D00012D17B6893ED037A3B68D3ED037AB4EEC2
:1019E000677AF1EE10FA07D17B681A7C3B681B7CA2
:1019F0009A4201D1012300E00023DBB218460C37E4
:101A0000BD465DF8047B704780B483B000AF87EDBE
:101A1000010AD7ED017AF5EEC07AF1EE10FA04D59D
:101A2000D7ED017AF1EE677A01E0D7ED017AB0EEF9
:101A3000670A0C37BD465DF8047B704780B483B0FD
:101A400000AF87ED010AC7ED000A97ED017AD7EDE7
:101A5000007AB4EEE77AF1EE10FA01D57B6800E087
:101A60003B6807EE903AB0EE670A0C37BD465DF86A
:101A7000047B704780B483B000AF03460A46FB7115
:101A80001346BB71BA79FB79934228BF1346DBB288
:101A900018460C37BD465DF8047B704780B485B0AE
:101AA00000AF03460A46FB711346BB71BA79FB7956
:101AB000934238BF1346FB7318E0FB7BFA79B3FB04
:101AC000F2F101FB02F29B1ADBB2002B0BD1FB7B84
:101AD000BA79B3FBF2F101FB02F29B1ADBB2002BE5
:101AE00001D1FB7B06E0FB7B0133FB73FB7BFF2B10
:101AF000E3D1FB7B18461437BD465DF8047B704785
:101B000080B485B000AF78600B46FB701346BB70A5
:101B10000023FB737B681B681B78BB730023BB81AE
:101B20001DE0BB7B392B0ED8BB7B2F2B0BD9BB8980
:101B30001A46920013445B009AB2BB7B9BB21344DB
:101B40009BB2303BBB817B681B685A1C7B681A6068
:101B50007B681B681B78BB73FB7B0133FB73FA7BD1
:101B6000BB789A4203D2BA7BFB789A42D9D1BB891F
:101B700018461437BD465DF8047B7047000000002E
:101B800080B588B000AF78600B46FB701346BB7021
:101B90000023FB777B681B681B78BB7700237B7770
:101BA00001233B770023BB614FF000037B613C4B7B
:101BB0003B6151E0FB7F002B07D1BB7F2D2B04D174
:101BC0003B7F5B42DBB23B773AE0BB7F2E2B02D1FF
:101BD00001237B7734E0BB7F392B31D8BB7F2F2BA0
:101BE0002ED9BB7F303BFB737B7F002B1FD0FB7B51
:101BF00007EE903AB8EEE77AD7ED047A67EE277AE7
:101C000097ED057A77EE277AC7ED057A3869FEF702
:101C10009BFC21A3D3E90023FEF7EEFC02460B4612
:101C200010461946FEF7C0FF03463B6108E0BA695B
:101C300013469B0013445B001A46FB7B1344BB61B5
:101C40007B681B685A1C7B681A607B681B681B7862
:101C5000BB77FB7F0133FB77FA7FBB789A4203D2D5
:101C6000BA7FFB789A42A5D1BB6907EE903AB8EEED
:101C7000677AD7ED057A37EE277A97F91C3007EEA9
:101C8000903AF8EEE77A67EE277AB0EE670A2037E7
:101C9000BD4680BDAFF300809A9999999999B93F53
:101CA000CDCCCC3D0000000080B582B000AF87ED08
:101CB000010A97ED010AFFF7A7FE10EE103A184649
:101CC000FEF742FC1DA3D3E90023FEF795FC024674
:101CD0000B46104619464FF00002154BFEF7B6FDB5
:101CE00002460B4643EC172BB0EE470AF0EE670AAC
:101CF0000CF0EAFB51EC100B4FF000020D4BFEF71D
:101D00007BFC02460B46104619464FF000020A4B78
:101D1000FEF7BCFA02460B4610461946FEF744FF92
:101D2000034607EE903AB0EE670A0837BD4680BD1D
:101D3000008066400080204000002E40182D445452
:101D4000FB21094000000000B0B582B000AF87ED74
:101D5000010A97ED010AFFF7A7FF10EE103A1846A7
:101D6000FEF7F2FB04460D467868FEF7EDFB17A37D
:101D7000D3E90023FEF740FC02460B461046194605
:101D80004FF00002104BFEF761FD02460B4643EC9C
:101D9000172BB0EE470AF0EE670A0CF095FB53ECF8
:101DA000102B20462946FEF751FD02460B461046F1
:101DB0001946FEF7F9FE034607EE903AB0EE670AC1
:101DC0000837BD46B0BD00BF00806640182D4454A2
:101DD000FB21094080B586B000AF87ED010A97ED81
:101DE000010AFFF7B1FF87ED040A97ED010AFFF73B
:101DF0005BFFB0EE407AF0EE006AC7EE267AC7EDE0
:101E0000037AD7ED047A27EEA77AD7ED037A67EE47
:101E1000A77A77EE277A17EE900AFEF795FB02462F
:101E20000B4643EC102B0CF021FB53EC102B10460F
:101E30001946FEF7B9FE03467B61D7ED017AF5EE50
:101E4000C07AF1EE10FA05D5D7ED057AF1EE677A92
:101E5000C7ED057A7B6907EE903AB0EE670A18374E
:101E6000BD4680BD0000000080B582B000AF87EDA8
:101E7000010AC7ED000AD7ED016A97ED007AC6EEB8
:101E8000877A9FED0F7A67EE877A17EE900AFEF752
:101E90005BFB09A3D3E90023FEF7D8FC02460B46FF
:101EA00010461946FEF780FE034607EE903AB0EE64
:101EB000670A0837BD4680BD182D4454FB210940F0
:101EC000000034430000000080B582B000AF7860AD
:101ED0007B6807EE903AB8EEE77ADFED156AC7EE59
:101EE000267A77EEA77A17EE900AFEF72DFB0EA35F
:101EF000D3E90023FEF780FB02460B461046194645
:101F00004FF000020B4BFEF777FB02460B461046E4
:101F10001946FEF749FE034607EE903AB0EE670A0F
:101F20000837BD4680BD00BF182D4454FB21094031
:101F300000C0BC4400000A40B0B582B000AF87EDDD
:101F4000010AC7ED000A3868FEF7FEFA15A3D3E9C7
:101F50000023FEF751FB02460B4614461D467868E7
:101F6000FEF7F2FA02460B4620462946FEF744FBEE
:101F700002460B46104619464FF00002084BFEF78A
:101F800065FC02460B4610461946FEF70DFE034659
:101F900007EE903AB0EE670A0837BD46B0BD00BF05
:101FA00000807640182D4454FB21194080B582B042
:101FB00000AF7860054A7B681360044B1B681846C5
:101FC00006F01EFE00BF0837BD4680BD9803002006
:101FD00080B483B000AF0346FB800A4B1B681B68CC
:101FE00000225A6200BF074B1B681B685A6AFB88B5
:101FF0009A42F8D300BF00BF0C37BD465DF8047BA2
:10200000704700BF9803002080B500AF9FED020A23
:1020100000F004F800BF80BD0000000080B582B071
:1020200000AF87ED010AB6EE081ADFED0B0A9FED4F
:102030000B0A0B4800F094F80A4B4FF000021A60AC
:10204000084A7B685360074B4FF000029A6000BF5C
:102050000837BD4680BD00BF3E8724370000000022
:102060009C030020A803002080B483B000AF87ED5C
:10207000010AC7ED000A224B93ED007A204BD3ED05
:10208000016AD7ED017A66EEA77A77EE277A1C4BC4
:10209000C3ED007A1A4B93ED017AD7ED006AD7EDC4
:1020A000017A66EEA77A77EE277A154BC3ED017AAF
:1020B000144B93ED017AD7ED017A67EEA76A104BC6
:1020C000D3ED027A66EEA77A77EE277A0D4BC3ED51
:1020D000017A0B4B93ED027AD7ED017A67EEA77A7E
:1020E000DFED096A67EEA67A77EE277A044BC3ED37
:1020F000027A00BF0C37BD465DF8047B704700BF15
:10210000A80300209C0300203E87243780B584B0BC
:1021100000AF87ED030AC7ED020A87ED011AD7ED7C
:10212000020A97ED030AFFF79FFF0B4BD3ED007AEE
:10213000D7ED010AB0EE670A084800F02AF8074B0D
:102140001B68054A1360044B1B6807EE903AB0EE1B
:10215000670A1037BD4680BDA80300209C030020FD
:1021600080B485B000AFF86087ED020AC7ED010AC0
:1021700087ED001AFB68BA681A60FB687A685A60D3
:10218000FB683A689A6000BF1437BD465DF8047B6F
:10219000704780B487B000AFF86087ED020AC7EDE2
:1021A000010AFB68D3ED016AFB6893ED017AFB68D5
:1021B000D3ED027A37EE277AC6EE877AC7ED057A35
:1021C000FB6893ED007AD7ED016AD7ED027A76EEDF
:1021D000E76AD7ED057A66EEA77A77EE277AFB688D
:1021E000C3ED007A00BF1C37BD465DF8047B704725
:1021F00080B483B000AF78607B680B4A1A607B685C
:102200000A4A5A607B680A4A9A607B68094ADA601F
:102210007B68094A1A617B68084A5A6100BF0C371B
:10222000BD465DF8047B70470000464166E661C22A
:10223000EFC9633F029A18BFADFA4C3F50FC983F7C
:1022400080B582B000AF78603960064A7B68136061
:10225000054A3B6813603868FFF7CAFF00BF0837BC
:10226000BD4680BDB4030020B803002080B485B013
:1022700000AF78607B6893ED007A224B1B68D3ED4A
:10228000007A77EE677AC7ED037A7B68043393EDC3
:10229000007A1C4B1B68D3ED017A77EE677AC7EDA5
:1022A000027A184B1B6893ED027AD7ED037A27EE7A
:1022B000277A144B1B68D3ED036AD7ED027A66EEDA
:1022C000A77A77EE277A7B68C3ED007A0D4B1B68FF
:1022D00093ED047AD7ED037A27EE277A094B1B6832
:1022E000D3ED056AD7ED027A66EEA77A7B680433F0
:1022F00077EE277AC3ED007A00BF1437BD465DF84C
:10230000047B7047B803002080B483B000AF7860CE
:102310007B681B889BB20133094A82FB031291112F
:10232000DA178A1A4FF47A7101FB02F29A1A92B202
:102330007B681A8000BF0C37BD465DF8047B704790
:10234000D34D621080B582B000AF78607B681B68A7
:10235000154A934223D1154B1B889BB21A46144B46
:102360001978144B9954114B1B889BB20133124AB4
:1023700082FB03129111DA178A1A4FF47A7101FB6A
:1023800002F29A1A92B2094B1A800C4B1B68013365
:102390000A4A136001220649094807F080FF00BF7E
:1023A0000837BD4680BD00BF00480040B807002088
:1023B000BC0B0020D4070020D34D6210C00B0020BE
:1023C0002807002080B483B000AF78607B68084A9B
:1023D000934207D1074B1B680133064A1360064B33
:1023E00001221A7000BF0C37BD465DF8047B7047B0
:1023F000C0050020E40B0020E00B002080B584B075
:1024000000AF7860364B1B78DBB2002B1DD1354B0B
:1024100000221A70344B00221A807B681B6800224D
:102420005A622F4B01221A707B681B681A6A7B68FC
:102430001B6822F0A0021A627B681B681A6A7B681C
:102440001B6842F020021A6246E00421786807F017
:1024500045FAF860244B1B889BB21B04FA681344AE
:10246000FB60FB689AB2214B1A80204B1B889BB201
:1024700007EE903AB8EE677ADFED1D6AC7EE267A6E
:102480001C4BC3ED007A03F039FE03461A4A136071
:10249000144B01221A70FB6807EE903AF8EE677A47
:1024A0009FED167A67EE877AB0EE670A02F004FDB8
:1024B0000B4B00221A707B681B681A6A7B681B68CA
:1024C00022F0A0021A627B681A687B681B68126A95
:1024D0001A62044B01221A7000BF1037BD4680BD3E
:1024E000C40B0020A40C0020C60B0020A60C00206A
:1024F00000006842C80B0020A80C0020BD378635BC
:1025000080B400AF064B1B6800225A62054B1B6863
:1025100000225A6200BFBD465DF8047B704700BFD1
:10252000E80400203005002080B582B000AFFFF73E
:10253000E7FF01F0DDFE9FED130AFFF76FFD124B81
:102540004FF000021A60114B4FF000021A60104B5E
:1025500000221A700F4B4FF000021A600E4B4FF022
:1025600000021A600D4B7B607868FDF781FE034620
:102570009AB20A2379680A4807F0FFFD00BF0837BE
:10258000BD4680BD00000000D80B0020DC0B002001
:10259000CC0B0020D00B0020D40B00202808010811
:1025A0002807002080B582B000AF06F0B1FA78604D
:1025B000254B9B6803F4E053002B02D07B685B0043
:1025C0007B607B68214AA2FB03239B0C013B3B60A1
:1025D0001F4B1B681A6A41F211131340002B0FD1D5
:1025E0001B4B1B681A6A40F244431340002B07D16F
:1025F000174B1B681A68164B1B6822F001021A6001
:102600003B689AB2124B1B689A62114B1B684FF6DB
:10261000FF72DA620E4B4FF6FF72DA600C4B1B68EA
:1026200000225A620A4B1B686FF001021A61084BC4
:102630001B681A68064B1B6842F001021A6000BF53
:102640000837BD4680BD00BF0038024083DE1B4313
:1026500078050020000000002DE9B04FDCB00CAF81
:1026600003F0E6FC00F0ACFE01F0D4FA01F0A8FAA9
:1026700000F0D6FF01F024F801F040FA00F0FEFE71
:1026800000F04EFF00F09EFF01F0C2F801F0F6F8F6
:1026900001F06AF801F028F901F094F901F0E0F98D
:1026A00008F040FFD649D748FFF7CAFDD64BD74AB6
:1026B000D749D44802F098FBD649D74801F0F0FC3E
:1026C000D64802F02DFED648FFF770FCFFF79CFCC1
:1026D00003F0AEFBFFF766FF9FEDD20A02F044FE67
:1026E0000021002002F032F9CF4A0021002008F03A
:1026F000E7FE08F06DFD00BF03F060FC0346002B11
:10270000FAD04FF4FA7003F005FD08F0E7FDC74A70
:102710000021002008F0D4FE08F05AFD4FF4FA70B2
:1027200002F060FDC24A0021002008F0C9FE08F056
:102730004FFD002387F83F31002387F807310B2333
:1027400087F806310A2387F80531562387F80431C4
:10275000052387F8033197F8052197F806311146CC
:102760001846FFF79BF903461A4697F803311946B6
:102770001046FFF793F9034687F8023197F80431C2
:10278000013B87F83E31002387F83D310023C7F82D
:1027900038314FF00003C7F834314FF00003C7F869
:1027A000FC304FF00003C7F830314FF00003C7F89A
:1027B0002C31002387F88B304FF00003C7F8283105
:1027C0004FF00003C7F824314FF00003C7F8203161
:1027D0004FF00003C7F8F8304FF00003C7F8F430AB
:1027E0004FF00003C7F81C314FF00003C7F8183151
:1027F0004FF00003C7F8F03001228E498E4807F0F1
:102800004EFD8E4806F064FA08F068FD8C4A0021FF
:10281000002008F055FE08F0DBFC8A4BC7F8EC30CE
:10282000D7F8EC00FDF724FD03469AB20A23D7F847
:10283000EC10814807F0A1FC97F83F3197F806218A
:10284000B3FBF2F101FB02F29B1ADBB2002B01D1C8
:1028500002F014FB02F08AFC02F064FC02F0CEFBF2
:10286000D7F83831002B08D197F83E31002B04D02F
:1028700097F83E31013B87F83E31D7F83831002BCD
:1028800040F03E81FFF752F8C7F8E80097F83E3174
:10289000002B0AD0D7F8E830002B00F01681D7F8CB
:1028A000E8301B78002B00F01081FFF727F8C7F8FD
:1028B0003801D7F83831002B00F02181D7F83831B2
:1028C0001B78022B00F0F680022B00F31881002BFE
:1028D00002D0012B7FD012E1D7F8383193F90920CB
:1028E000D7F838319B7A1946104602F02FF8D7F8FE
:1028F000383193F90930002B64D0FFF715FED7F873
:1029000038315B69C7F828314F4BC7F82431D7F805
:1029100038311B7C002B02D1B2EE0E7A01E0B3EE0F
:10292000047AD7F838319B7A07EE903AF8EEE77AD6
:1029300027EE277ADFED456AC7EE267AC7ED487A9B
:10294000D7F83831DB68C7F8343197ED4D0A02F01B
:102950000BFDD7ED4D7AF5EE407AF1EE10FA24D06A
:1029600097ED4D0AFFF7F0F987ED460A97ED4D0A0E
:10297000FFF730FA87ED3C0AD7F838311B7C002B83
:1029800040F0A180D7F83831D3ED057AD7ED460A6B
:10299000B0EE670AFFF7D0FAF0EE407AB0EE670AC1
:1029A000FFF732F887ED4A0A8DE04FF00003C7F8D1
:1029B00018314FF00003C7F8F0304FF00003C7F8AC
:1029C0001C3180E0D7F838111B48FEF7D5FF0023F3
:1029D000C7F8383177E097F88B30DBB2002B0CBFAB
:1029E00001230023DBB287F88B3097F88B30DBB202
:1029F000002B2DD04FF00003C7F82C3151E000BF61
:102A0000A00700204C0400206C07002004040020D4
:102A1000BC03002030050020E8040020E006002070
:102A20007805002000000000C4080108E008010843
:102A3000F0080108BC0B002028070020C00500207A
:102A4000040901080C090108000048420000C842BE
:102A5000D7F838315B68184608F0FAFDD7F83831F6
:102A600009221A72D7F838311B7A184608F0E8FDA7
:102A700003461A46D7F838315A60D7F838315C68BF
:102A8000D7F838311B7A1D46D7F82C01FDF75CFDCD
:102A900002460B46CDE90023C54A2946204609F0E7
:102AA000A5FBD7F83811C348FEF766FF0023C7F827
:102AB000383109E0D7F83811BE48FEF75DFF002332
:102AC000C7F8383100E000BF19E0FEF73BFFC7F858
:102AD000E400D7F8E430002B07D0D7F8E430D3ED8A
:102AE000037AB0EE670A02F03FFC97F83E31002B04
:102AF00006D097F83E31013B87F83E3100E000BF39
:102B0000D7F83831002B00F02C84D7F8383193F9FE
:102B10000930002B00F02584A74B1B78002B1BD11C
:102B200001F0E6FB9FEDA50AFFF778FAA44B4FF002
:102B300000021A60A24B1B68A24A1360A24B00223B
:102B40001A70A24B4FF000021A60A04B1B68A04AFB
:102B50001360994B01221A7001F0CAFB87ED3F0AFE
:102B60009C4BD3ED057A97ED3F1AF0EE670AB0EE75
:102B7000000AFFF7CBFA87ED380A924AD7F8E0301F
:102B80001360954BC7F8DC308E4B93ED007A8C4B7D
:102B9000D3ED007A77EE677AC7ED367A8A4B1B78E9
:102BA000002B06D0D7ED366A97ED377AC6EE877AD6
:102BB00001E0DFED827AC7ED457A834B1B78002B6D
:102BC00006D1814B01221A704FF00003C7F814316F
:102BD000D7ED457AF0EEE77A9FED807AF4EEC77A8A
:102BE000F1EE10FA03DD4FF00003C7F81431D7ED12
:102BF000457A9FED7B7A27EE877A754BD3ED007A85
:102C0000DFED786A67EEA67A77EE277A704BC3ED30
:102C1000007A6F4BD3ED007AF0EEE77AC7ED357AA4
:102C2000D7ED357A67EEA77ADFED6F6A87EEA67A81
:102C3000D7ED357ADFED6D6A67EEA67A77EE277A03
:102C4000B0EE007A77EE877AC7ED487AD7ED487A0A
:102C5000F5EEC07AF1EE10FA03D54FF00003C7F895
:102C60002031D7ED497AF0EEE77AB5EE007A67EEDB
:102C7000877AC7ED347A97ED487AD7ED347AB4EE97
:102C8000E77AF1EE10FA03DDD7F8D030C7F820313B
:102C90004E4AD7F8143113604A4B1B68484A1360F8
:102CA0004B4B1B68C7F8CC30D7F8383193F9093053
:102CB00007EE903AB8EEE77A464BD3ED037A67EE2B
:102CC000277AC7ED327AD7ED467AF5EE407AF1EE03
:102CD00010FA08D0D7ED460A97ED330AFFF7C4F88B
:102CE00087ED470A03E04FF00003C7F81C3197ED6A
:102CF000327AD7ED477A77EE677AC7ED3D7AD7ED2E
:102D0000327A77EEA77AC7ED447AD7F83831D3ED27
:102D1000037AF5EEC07AF1EE10FA05D5D7ED447AD4
:102D2000F1EE677AC7ED447A97ED4C7AD7ED447AA5
:102D300077EE277AC7ED4C7AD7F82431C7F8F83008
:102D4000D7F838311B7C032B00F39880022B51DA23
:102D5000002B02D0012B10D090E01A4BD3ED007A5B
:102D6000F0EEE77AC7ED2E7A97ED4A7AD7ED2E7A14
:102D700077EE677AC7ED497A85E01D4B1B78DBB2A9
:102D8000002B7FD0134B93ED027AD7F83831D3ED77
:102D9000057A37EE677AD7F8383193F9093007EEBC
:102DA000903AF8EEE77A67EE277AC7ED497A69E05C
:102DB0001409010828070020CD0B002000000000A6
:102DC000DC0B0020D80B0020CC0B0020D40B002003
:102DD000D00B00206C0700206F12033B000048431B
:102DE000CDCCCC3E9A99193F000070430AD7A33D41
:102DF000A40C0020D7F838311B7C022B14BF012310
:102E00000023DBB287F8C73097F8C730A74A9B008A
:102E100013441B68C7F8C030D7F838315B69C7F86E
:102E2000BC30D7ED2F7AF5EEC07AF1EE10FA15D559
:102E3000D7ED2F7AF1EE677AC7ED2F7A97ED307ADA
:102E4000D7ED2F7AB4EEE77AF1EE10FA01DD984B68
:102E500001E04FF00003C7F8243114E097ED307A19
:102E6000D7ED2F7AB4EEE77AF1EE10FA01D5904B58
:102E700001E04FF00003C7F8243104E08C4BC7F8A1
:102E8000243100E000BF97F83F318A4AA2FB0312C9
:102E90005209642101FB02F29B1ADBB2002B3FD1E5
:102EA000854B1B681846FDF74FFB04460D46D7F8C7
:102EB000CC00FDF749FB80468946804B1B681846CD
:102EC000FDF742FB82468B46D7F82801FDF73CFB15
:102ED000C7E90001D7F82401FDF736FB02460B468F
:102EE0007749097807F108000A91CDE9082397EDA1
:102EF000007B8DED067BCDE904ABCDE90289CDE900
:102F00000045704A802109F071F9C7F8B400D7F87C
:102F1000B4309AB207F108010A236B4807F02DF983
:102F2000FEF704FDC7F8B000D7F8B030002B37D05B
:102F3000D7F8B0301B78002B32D1D7F8B010D7F8C3
:102F40003801FEF733FD0346002B29D0FEF7D6FCEF
:102F5000C7F8B000D7F8B0301B7C002B05D0002B91
:102F600019DB013B022B16D80EE0D7F8383193ED70
:102F7000057AD7F8B030D3ED057A77EE277AD7F80F
:102F80003831C3ED057A06E0D7F8B0305A69D7F882
:102F900038315A6100BFD7F8B0104B48FEF7ECFC4F
:102FA000FEF7D0FCC7F8B000D7F8B030002B03D044
:102FB000D7F8B030DB6801E04FF00003C7F8AC3061
:102FC000D7F83831D3ED037A97ED2B7A77EE677A1D
:102FD000B0EE670AFEF718FD87ED2A0AD7F83831F8
:102FE0001B7C012B23D0D7F8B030002B1FD0D7F893
:102FF000B03093F90920D7F8383193F909309A4263
:1030000015D1D7ED2A7AB3EE0A7AF4EEC77AF1EE4B
:1030100010FA0CDCD7F8383193ED037AD7ED2B7A20
:1030200067EE277AF5EEC07AF1EE10FA01D50123AA
:1030300000E0002387F8A730D7F8B030002B08D085
:10304000D7F8B0309B7A19461E20FEF713FD0346D1
:1030500000E01E2387F8A630D7F838311A7CD7F85D
:1030600038319B7A19461046D7ED481A97ED491A20
:10307000D7ED460A97ED3D0A01F04AFA134BD3ED1E
:10308000007AF0EEE77A9FED127AF4EEC77AF1EE6D
:1030900010FA21DDD7ED497AF0EEE76A0B4BD3ED5C
:1030A000007AB0EEE77AC6EE877A17E06C07002068
:1030B000000048421F85EB51D80B0020D40B0020A4
:1030C000CC0B00201C09010828070020D00B002091
:1030D0006F12833AF90215505FED027AC7ED287A34
:1030E000002387F80F3197F8A730002B57D197F8B6
:1030F0003F3197F80521B3FBF2F101FB02F29B1A75
:10310000DBB2002B4BD197ED2B7AD7ED4D7A77EED2
:10311000677AB0EE670AFEF777FC87ED270A97ED2E
:10312000277AF0EE086AC7EE267AB3EE047A67EEE5
:10313000877A97ED287AB4EEE77AF1EE10FA2ED579
:10314000D7ED270AB0EE080AFEF778FC87ED420AB1
:1031500097ED2B7AD7ED4D7AB4EEE77AF1EE10FACF
:1031600005D5D7ED427AF1EE677AC7ED427A97ED51
:103170004D7AD7ED427A77EE277AC7ED4D7A97ED03
:103180004D0A02F0F1F8D7ED277AB0EE087AF4EEA6
:10319000C77AF1EE10FA02D5012387F80F3197EDC7
:1031A000490AFEF731FC87ED260A97ED497AD7EDFB
:1031B0003E7A77EE677AB0EE670AFEF725FC87ED78
:1031C000250A97F8A730002B14D0D7ED267AB7EE52
:1031D000007AF4EEC77AF1EE10FA0BD5D7F8940026
:1031E000FDF7B2F972A3D3E90023FDF777FC03469C
:1031F000002B0BD1D7F89800FDF7A6F96EA3D3E901
:103200000023FDF76BFC0346002B01D0012300E0F7
:10321000002387F8933097F89330002B04D097F869
:103220003D310133DBB200E0002387F83D3197F8F0
:103230003D31092B08D8D7ED497ABEEE007AF4EE7D
:10324000C77AF1EE10FA01D5012300E000235AB24B
:1032500097F90F3113435BB287F80F3197F80F31AD
:10326000002B7ED0002387F83D31D7F8381148482D
:10327000FEF782FB0023C7F8383197ED2B0A02F0E6
:1032800073F897F8A730002B20D097ED2B7AD7ED65
:103290004D7A77EE677AB0EE670AFEF7B5FBB0EECF
:1032A000407AF0EE086AC7EE267AB2EE047A67EE4C
:1032B000877AB2EE0E7A77EE877AFCEEE77AC7ED80
:1032C000007A3B7887F83E3100F0B6FFFFF72CF923
:1032D00097F88B30DBB2002B43D02E4BD3ED007A26
:1032E000F0EEE77A97ED4B7A77EE277AC7ED4B7AD7
:1032F00037E0294B1B889AB2284B1B889BB29A4215
:103300002FD0254B1B889BB21A46254B9B5C87F818
:103310009230244B1B885A1C91B2224A11801946C4
:10332000214A97F89230535497F892300A2B15D1CE
:103330001D4BC7F88C3097F892300A2B03D097F8C2
:1033400092300D2B0AD1174B1B88DBB21A46164957
:103350000F48FEF79BF9134B00221A800E48FEF728
:10336000D3FF124B1B78DBB2002BC2D00F4B0022D5
:103370001A7097F83F31013397F8022193FBF2F16D
:1033800001FB02F29B1A87F83F31FFF755BA00BFE5
:1033900028070020D80B0020BA070020B80700201B
:1033A000D4070020BC070020C0070020E00B00204D
:1033B0009A9999999999C93F9A9999999999A93FEF
:1033C00080B594B000AF07F12003302200211846E9
:1033D00008F0C2FF07F10C0300221A605A609A60DD
:1033E000DA601A610023BB60224B1B6C214A43F058
:1033F000805313641F4B1B6C03F08053BB60BB688E
:1034000000237B601C4B1B681B4A43F48043136002
:10341000194B1B6803F480437B607B6802233B628B
:103420000123FB6210233B630023BB6307F12003EE
:10343000184604F03DFF0346002B01D000F0AAFC23
:103440000F23FB6000233B6100237B610023BB61F2
:103450000023FB6107F10C030021184605F0A0F9D9
:103460000346002B01D000F095FC00BF5037BD464D
:1034700080BD00BF003802400070004080B584B0BD
:1034800000AF3B4600221A605A609A60DA60214B16
:10349000214A1A601F4B00225A601E4B00229A607C
:1034A0001C4B00221A611B4B00221A76194B00227A
:1034B00083F82020174B0022DA62164B174A9A62D3
:1034C000144B0022DA60134B0122DA61114B002207
:1034D00083F830200F4B01225A610E4802F03EFE65
:1034E0000346002B01D000F055FC04233B60012370
:1034F0007B600023BB603B461946064803F03EF95B
:103500000346002B01D000F045FC00BF1037BD463C
:1035100080BD00BFBC030020002001400100000F5F
:1035200080B584B000AF3B4600221A605A609A60B2
:10353000DA60214B214A1A601F4B00225A601E4B51
:1035400000229A601C4B00221A611B4B00221A7643
:10355000194B002283F82020174B0022DA62164B09
:10356000174A9A62144B0022DA60134B0122DA6187
:10357000114B002283F830200F4B01225A610E4874
:1035800002F0ECFD0346002B01D000F003FC052304
:103590003B6001237B600023BB603B461946064825
:1035A00003F0ECF80346002B01D000F0F3FB00BF62
:1035B0001037BD4680BD00BF04040020002101403B
:1035C0000100000F80B500AF124B134A1A60114B77
:1035D000124A5A600F4B00229A600E4B0022DA60AA
:1035E0000C4B4FF480421A610A4B00225A61094B7E
:1035F00000229A61074B0022DA61064B00221A6210
:10360000044803F06DFE0346002B01D000F0C2FB1E
:1036100000BF80BD4C04002000580040A08601007F
:1036200080B586B000AF07F1080300221A605A6027
:103630009A60DA603B4600221A605A601E4B1F4AAD
:103640001A601D4B10225A601B4B00229A601A4BC5
:103650004FF47A72DA60184B00221A61164B00227E
:103660005A61154B80229A61134805F079FA034696
:10367000002B01D000F08EFB4FF48053BB6007F1AC
:10368000080319460C4806F061F80346002B01D0E8
:1036900000F080FB00233B6000237B603B46194623
:1036A000054806F08DFC0346002B01D000F072FBAC
:1036B00000BF1837BD4680BDA004002000000140B7
:1036C00080B58CB000AF07F10C032422002118460E
:1036D00008F042FE3B1D00221A605A60214B4FF059
:1036E00080421A601F4B00225A601E4B00229A60D3
:1036F0001C4B4FF0FF32DA601A4B00221A61194B53
:1037000000229A610323FB6000233B6101237B615C
:103710000023BB610A23FB6102233B6201237B621E
:103720000023BB620A23FB6207F10C0319460D4814
:1037300005F060FC0346002B01D000F02BFB0023BA
:103740007B600023BB603B1D1946064806F038FC31
:103750000346002B01D000F01DFB00BF3037BD46F3
:1037600080BD00BFE804002080B58CB000AF07F139
:103770000C0324220021184608F0EEFD3B1D002218
:103780001A605A60204B214A1A601F4B00225A606F
:103790001D4B00229A601C4B4FF6FF72DA601A4BE9
:1037A00000221A61184B00229A610323FB60002358
:1037B0003B6101237B610023BB610A23FB61022380
:1037C0003B6201237B620023BB620A23FB6207F199
:1037D0000C0319460C4805F00DFC0346002B01D0E4
:1037E00000F0D8FA00237B600023BB603B1D194624
:1037F000054806F0E5FB0346002B01D000F0CAFAAD
:1038000000BF3037BD4680BD3005002000040040B9
:1038100080B582B000AF3B4600221A605A60154B5B
:10382000154A1A60134B00225A60124B00229A600C
:10383000104B4FF6FF72DA600E4B00229A610D4872
:1038400005F08EF90346002B01D000F0A3FA002307
:103850003B6000237B603B461946064806F0B0FB00
:103860000346002B01D000F095FA00BF0837BD4693
:1038700080BD00BF780500200010004080B582B0F8
:1038800000AF3B4600221A605A60154B154A1A6079
:10389000134B00225A60124B00229A60104B4FF6D5
:1038A000FF72DA600E4B00229A610D4805F058F95C
:1038B0000346002B01D000F06DFA00233B6000238B
:1038C0007B603B461946064806F07AFB0346002B10
:1038D00001D000F05FFA00BF0837BD4680BD00BFD1
:1038E000C00500200014004080B58CB000AF07F187
:1038F000200300221A605A609A60DA603B1D0022A1
:103900001A605A609A60DA601A615A619A612B4BA8
:103910002B4A1A60294B00225A60284B00229A60D9
:10392000264B4FF4E152DA60244B00221A61234BFC
:1039300000229A61214805F013F90346002B01D0BB
:1039400000F028FA4FF480533B6207F12003194638
:103950001A4805F0FBFE0346002B01D000F01AFACE
:10396000164805F025FA0346002B01D000F012FAA4
:1039700060237B600023BB600023FB6000237B612E
:103980003B1D002219460D4805F01EFE0346002B84
:1039900001D000F0FFF93B1D04221946074805F04D
:1039A00013FE0346002B01D000F0F4F9034802F0A7
:1039B0000DF800BF3037BD4680BD00BF08060020AF
:1039C0000040014080B588B000AF3B1D00221A6066
:1039D0005A609A60DA601A615A619A611E4B1F4AF6
:1039E0001A601D4B00225A601B4B00229A601A4B32
:1039F0004FF4E152DA60184B00221A61164B002294
:103A00009A61154805F0ACF80346002B01D000F090
:103A1000C1F9114805F0CCF90346002B01D000F0A4
:103A2000B9F960237B600023BB600023FB600023A7
:103A30007B613B1D00221946074805F0C5FD034682
:103A4000002B01D000F0A6F9034801F0BFFF00BF32
:103A50002037BD4680BD00BF500600200044014015
:103A600080B588B000AF3B1D00221A605A609A6092
:103A7000DA601A615A619A611E4B1F4A1A601D4B27
:103A800000225A601B4B00229A601A4B4FF4E152FD
:103A9000DA60184B00221A61164B00229A61154811
:103AA00005F05EF80346002B01D000F073F91148D1
:103AB00005F07EF90346002B01D000F06BF960237E
:103AC0007B600023BB600023FB6000237B613B1D08
:103AD00000221946074805F077FD0346002B01D068
:103AE00000F058F9034801F071FF00BF2037BD46D0
:103AF00080BD00BF980600200048014080B58CB012
:103B000000AF07F1200300221A605A609A60DA6061
:103B10003B1D00221A605A609A60DA601A615A618D
:103B20009A61254B254A1A60234B04225A60224B86
:103B300000229A60204B4FF6FF72DA601E4B002283
:103B40001A611D4B80229A611B4805F009F8034653
:103B5000002B01D000F01EF94FF480533B6207F1B7
:103B600020031946144805F0F1FD0346002B01D04F
:103B700000F010F9104805F01BF90346002B01D0A6
:103B800000F008F960237B600023BB600023FB602A
:103B900000237B613B1D04221946074805F014FDF4
:103BA0000346002B01D000F0F5F8034801F00EFFAA
:103BB00000BF3037BD4680BDE00600200018004041
:103BC00080B500AF114B124A1A60104B4FF4E1322E
:103BD0005A600E4B00229A600C4B0022DA600B4BAD
:103BE00000221A61094B0C225A61084B00229A618B
:103BF000064B0022DA61054806F072FA0346002BF4
:103C000001D000F0C7F800BF80BD00BF280700202A
:103C10000048004080B58AB000AF07F114030022CD
:103C20001A605A609A60DA601A6100233B61544B53
:103C30001B6B534A43F010031363514B1B6B03F090
:103C400010033B613B690023FB604D4B1B6B4C4AEF
:103C500043F0010313634A4B1B6B03F00103FB604A
:103C6000FB680023BB60464B1B6B454A43F00203D5
:103C70001363434B1B6B03F00203BB60BB68002361
:103C80007B603F4B1B6B3E4A43F0080313633C4B86
:103C90001B6B03F008037B607B6800233B60384BA1
:103CA0001B6B374A43F004031363354B1B6B03F064
:103CB00004033B603B6800224FF48071314803F0FD
:103CC000DDFA002247F604012F4803F0D7FA00225C
:103CD0004FF480712D4803F0D1FA4FF480737B616B
:103CE0000123BB610023FB6100233B6207F1140346
:103CF0001946244803F00EF947F604037B610123BB
:103D0000BB610023FB6100233B6207F114031946EA
:103D10001D4803F0FFF84FF480737B610123BB6102
:103D20000023FB6100233B6207F114031946174887
:103D300003F0F0F84FF480537B614FF44413BB6100
:103D40000223FB6107F114031946114803F0E2F85E
:103D500001237B610023BB610023FB6107F1140396
:103D60001946084803F0D6F800220021282003F065
:103D700008F8282003F021F800BF2837BD4680BD91
:103D80000038024000100240000C024000000240D7
:103D90000008024080B400AF72B600BF00BFFDE76C
:103DA0000FB480B5AAB000AF07F1B4033B60381D73
:103DB0003B68D7F8B020A02108F0C0FAC7F8A400EB
:103DC000D7F8A430002B07DDD7F8A4309AB2391DFC
:103DD0000A23054806F0D1F900BFA837BD46BDE863
:103DE000804004B0704700BF2807002080B400AFB7
:103DF000034B1B68DB6A1846BD465DF8047B7047C1
:103E00000806002080B400AF034B1B68DB6A18462D
:103E1000BD465DF8047B70475006002080B400AFBB
:103E2000034B1B68DB6A1846BD465DF8047B704790
:103E30009806002080B483B000AF03463960FB8051
:103E4000FB883A689A4202D23B689BB200E0FB884A
:103E500018460C37BD465DF8047B704780B400AF50
:103E6000054B1B68002B0CBF01230023DBB2184657
:103E7000BD465DF8047B7047EC0B002080B483B036
:103E800000AF03460A46FB801346BB80B7F9042007
:103E9000B7F906309A4202D0044B01221A6000BFE3
:103EA0000C37BD465DF8047B704700BF700C0020E6
:103EB00080B500AF064B1B68002B06D1FFF7CEFF85
:103EC0000346002B01D1012300E00023184680BDEA
:103ED000700C002080B584B000AF03460A46FB801A
:103EE00013467B71FFF79AFFF860FFF78BFFB8600E
:103EF000BA68FB689A4228BF1A46FB8811461846E2
:103F0000FFF798FF0346FB8097F90530002B08DA8E
:103F1000174B1B6800225A63164B1B68FA885A63BA
:103F200021E097F90530002B08DD114B1B68FA885A
:103F30005A63104B1B6800225A6314E097F905304E
:103F4000002B08D10A4B1B68FA685A63094B1B689F
:103F5000BA685A6307E0064B1B6800225A63054B98
:103F60001B6800225A6300BF1037BD4680BD00BFEA
:103F7000980600205006002080B584B000AF0346AC
:103F80000A46FB8013467B71FFF730FFF860FB8821
:103F9000F9681846FFF74EFF0346FB8097F9053096
:103FA000002B08DA174B1B68FA885A63154B1B68FD
:103FB00000229A6321E097F90530002B08DD114BB0
:103FC0001B6800225A630F4B1B68FA889A6314E03F
:103FD00097F90530002B08D10A4B1B68FA685A6321
:103FE000084B1B68FA689A6307E0064B1B680022BF
:103FF0005A63044B1B6800229A6300BF1037BD460A
:1040000080BD00BF0806002080B584B000AF034625
:10401000FB7197F90730002B08DC97F90730002B6C
:1040200002DA4FF0FF3302E0002300E00123194AD7
:104030001370194B1B685B6BFB81184B1B689B6BE8
:10404000BB81FB89002B10D1BB89002B0DD1114BFB
:1040500093F90030002B08D002210020FFF73AFF2F
:1040600002210020FFF788FF10E00A4B93F900209F
:10407000FB8911461846FFF72DFF064B93F90020E8
:10408000BB8911461846FFF777FF00BF00BF103706
:10409000BD4680BD000C0020500600200806002010
:1040A00080B582B000AF786039604A4A7B6813609F
:1040B000494A3B681360474B1B683C21184605F092
:1040C000CDF8454B1B683C21184605F039F8002116
:1040D000424804F0C7FE0021414804F0C3FE00211D
:1040E000404804F0BFFE04213E4804F0BBFE3B4BB9
:1040F0001B6800225A633A4B1B6800225A63394BF3
:104100001B6800225A63374B1B6800229A63364BA8
:1041100000221A70354B00221A80354B00221A807B
:10412000344B00221A80334BB3F90020324B1A80F3
:10413000284B1B68002B05D0264B1B681B685B6A4D
:104140001BB200E000232D4A1380234B1B68002B79
:1041500005D0214B1B681B685B6A1BB200E0002383
:10416000274A1380274B00221A60274B00221A602F
:10417000DFED267A9FED267ADFED266AB0EE661A2D
:10418000F0EE470AB0EE670A234800F0D5FCDFEDF9
:10419000237A9FED237ADFED236AB0EE661AF0EE04
:1041A000470AB0EE670A204800F0C6FCDFED1F7A30
:1041B0009FED1F7AF5EE006AB0EE661AF0EE470A40
:1041C000B0EE670A1B4800F0B7FC00BF0837BD46D9
:1041D00080BD00BFE80B0020EC0B002098060020FB
:1041E0005006002008060020000C0020F40B0020E0
:1041F000F60B0020FA0B0020F80B0020FC0B00202F
:10420000FE0B0020F00B0020700C002000504347F4
:1042100000002F4400803B45040C00203333B33FA3
:10422000E02D903A8FC2F53D280C00206666C63F0F
:10423000F7CC92384C0C002080B584B000AFFFF76B
:10424000EDFDF860FFF7DEFDB860FFF7CFFD7860A9
:10425000194B1B68FA685A63184B1B68BA685A6393
:10426000174B1B687A685A63154B1B687A689A6308
:104270004FF47A7001F04EFF0F4B1B6800225A6317
:104280000E4B1B6800225A630D4B1B6800225A63B9
:104290000B4B1B6800229A630A4B00221A700A4BD0
:1042A00000221A80094B00221A80094B00221A8032
:1042B00000BF1037BD4680BD980600205006002084
:1042C00008060020000C0020F40B0020F80B002052
:1042D000FA0B002080B483B000AF78607B681B6865
:1042E0005B6A1BB218460C37BD465DF8047B70470D
:1042F00080B586B000AF364B1B68002B06D0344B20
:104300001B681846FFF7E6FF034600E000237B82A8
:10431000304B1B68002B06D02E4B1B681846FFF74E
:10432000D9FF034602E02C4BB3F900303B822B4B04
:10433000B3F900309AB27B8AD31A9BB2FB813A8AD6
:10434000254BB3F900309BB2D31A9BB2BB81234AF1
:104350007B8A13801F4B1B68002B02D01E4A3B8AAE
:104360001380B7F90E30BB60B7F90C307B60194B86
:104370001B68002B05D0B7F90C3000211846FFF759
:104380007DFDFFF76BFD0346002B04D1FFF790FD89
:104390000346002B02D0BB687B6106E0BA687B68ED
:1043A0001344DA0F13445B107B610D4B1A687B6971
:1043B00013440B4A13600A4B1B681846FDF784FD33
:1043C000F0EE407AB0EE670A1837BD4680BD00BFF8
:1043D000E80B0020EC0B0020FE0B0020FC0B002063
:1043E000F00B002080B485B000AF0346FB71FB7971
:1043F000002B01D100230EE0FB79462202FB03F3E0
:10440000FB60FB68002B04DDFB68632B01DC64238D
:10441000FB60FB681BB218461437BD465DF8047B91
:104420007047000080B582B000AF364BB3F9003062
:10443000002B0AD0334BB3F9003041F658326421D7
:10444000184600F007FB034600E00023FB802E4BDC
:10445000B3F90030002B0AD02B4BB3F9003041F6F2
:1044600058326421184600F0F5FA034600E00023B4
:10447000BB80B7F90630184600F00CFB0346FB8002
:10448000B7F90430184600F005FB0346BB80B7F9C6
:104490000630002B06D1B7F90430002B02D1FFF70C
:1044A000CBFE2BE0B7F90630002B09D1174B93F95F
:1044B0000030002B04D002210020FFF70BFD07E0A5
:1044C000FB88124A92F9002011461846FFF702FDB8
:1044D000B7F90430002B09D10C4B93F90030002BB5
:1044E00004D002210020FFF747FD07E0BB88074A00
:1044F00092F9002011461846FFF73EFD0837BD46E9
:1045000080BD00BFF80B0020FA0B0020000C00203B
:1045100080B59AB000AF87ED050AC7ED040A87EDB4
:10452000031AC7ED021A03460A46FB711346BB7114
:10453000BC4B1B88A7F86630B7F96630002B02DA4F
:104540000023A7F86630B7F9663041F65832934237
:1045500003DD41F65833A7F86630B34AB7F8663042
:104560001380B14BB3F90030002B0DD10020FFF7C1
:104570004BFDAE4B00221A80AC4BB3F90020AC4B84
:104580001A80FFF74FFFD8E1A74BB3F90030002B9B
:1045900019DAA84B93F90030DBB25B42DBB25BB2B5
:1045A0001846FFF731FDD7ED057AF1EE677AC7EDD2
:1045B000057A9D4BB3F900309BB25B429BB21AB2B5
:1045C000994B1A8005E09B4B93F900301846FFF792
:1045D0001BFD4FF07E533B664FF07E53FB65D7EDDE
:1045E000047AF0EEE77A9FED947AF4EEC77AF1EE72
:1045F00010FA6FDD914BBB64D7ED047AF5EEC07A0B
:10460000F1EE10FA1ED5D7ED047AB1EE677AD7ED48
:10461000127A77EE677AF1EE676A97ED047AC6EE62
:10462000877AC7ED187A97ED127AD7ED047A77EE8C
:10463000677AF1EE676A97ED047AC6EE877AC7ED7E
:10464000177A17E097ED047AD7ED127A77EE276A9A
:1046500097ED047AC6EE877AC7ED187A97ED047A5B
:10466000D7ED127A77EE676A97ED047AC6EE877A0D
:10467000C7ED177AD7ED187AF0EEE77A9FED707AEA
:10468000F4EE477AF1EE10FA02D94FF07E533B6612
:10469000D7ED177AF0EEE77A9FED697AF4EE477A74
:1046A000F1EE10FA02D94FF07E53FB65D7ED187A80
:1046B000F5EEC07AF1EE10FA02D54FF000033B663A
:1046C000D7ED177AF5EEC07AF1EE10FA02D54FF079
:1046D0000003FB65544BB3F9003007EE903AF8EE57
:1046E000E77AC7ED117A4FF00003BB65554B3B6489
:1046F000D7ED100A97ED050A534800F045FA87ED0B
:104700000F0A484BB3F90030002B0FDD97ED0F7AFD
:10471000D7ED117A67EE276A424BB3F9003007EE06
:10472000903AB8EEE77AC6EE877A01E0DFED477A95
:10473000C7ED167AD7ED167AF0EEE77AC7ED0E7A66
:10474000D7ED117A9FED427A67EE877AC7ED0D7A41
:1047500097ED0E7AD7ED0D7AB4EEE77AF1EE10FA16
:104760000FDDD7ED167AF5EEC07AF1EE10FA04D52A
:10477000D7ED0D7AF1EE677A01E0D7ED0D7AC7ED4E
:10478000167A97ED117AD7ED187A67EE277AC7ED8A
:104790000C7A97ED117AD7ED177A67EE277AC7ED85
:1047A0000B7A9FED2C7AD7ED0C7A77EE677AC7ED0E
:1047B0000A7A9FED287AD7ED0B7A77EE677AC7ED04
:1047C000097AD7ED0A7AB0EEE77AD7ED097AF0EEFA
:1047D000E77AF0EE670AB0EE470A09F0D1FE87EDFE
:1047E000150AD7ED157AF5EEC07AF1EE10FA02D57A
:1047F0004FF000037B65D7ED167AF0EEE77A97ED80
:10480000157AB4EEE77AF1EE10FA2BD5D7ED167AD9
:10481000F5EEC07AF1EE10FA20D5D7ED157AF1EE6B
:10482000677A1DE0F60B0020F40B0020FA0B002045
:10483000F80B0020000C0020BD37863533330341D0
:10484000FFFF7F7F6F12033B040C0020000000007D
:10485000CDCCCC3E00C0DA4500004842D7ED157AF9
:10486000C7ED167A97ED0C7AD7ED167A77EE677A60
:10487000C7ED147A97ED0B7AD7ED167A77EE277A93
:10488000C7ED137AD7ED147AB0EEE77AD7ED137A45
:10489000F0EEE77AF0EE670AB0EE470A09F053FE51
:1048A00087ED080AD7ED087A1FED167AF4EEC77A7D
:1048B000F1EE10FA17DD5FED196A97ED087AC6EE92
:1048C000877AC7ED077A97ED147AD7ED077A67EE06
:1048D000277AC7ED147A97ED137AD7ED077A67EE4A
:1048E000277AC7ED137AD7ED147A1FED257AF4EE07
:1048F000C77AF1EE10FA01D5002306E0D7ED147A5D
:10490000FDEEE77A17EE903A1BB20D4A1380D7ED11
:10491000137A9FED0C7AF4EEC77AF1EE10FA01D516
:10492000002306E0D7ED137AFDEEE77A17EE903A12
:104930001BB2054A1380FFF775FD6837BD4680BD81
:10494000F80B002000004842FA0B002080B582B02E
:1049500000AF03460A46FB711346BB7197F9073057
:10496000BA7919462E48FFF71BFA00F0B1F897F90B
:104970000730002B02D0BB79002B10D1294B00222D
:104980001A70FFF759FC284B00221A80274B00228F
:104990001A80264BB3F90020254B1A803DE0BB79E5
:1049A0001846FFF71FFD03461A46224B1A80214B7B
:1049B000B3F900201C4B1A801B4BB3F900201B4B92
:1049C0001A801A4BB3F90020194B1A801A4B1B6836
:1049D0001846FFF77FFC03461A46184B1A80184BFF
:1049E0001B681846FFF776FC03461A46154B1A80DB
:1049F000154800F08BF8154800F088F8144800F0CE
:104A000085F897F90730002B01DD012201E04FF016
:104A1000FF32044B1A70FFF705FD0837BD4680BD15
:104A200064090108000C0020F40B0020FA0B0020A0
:104A3000F80B0020F60B0020E80B0020FC0B0020F8
:104A4000EC0B0020FE0B0020040C0020280C0020A2
:104A50004C0C002080B483B000AF0346FB800B46B3
:104A6000BB8013467B80B7F90620B7F904309A4221
:104A700008DBB7F90620B7F902309342A8BF134606
:104A80001BB201E0B7F9043018460C37BD465DF89B
:104A9000047B704780B483B000AF0346FB80B7F956
:104AA0000630002B01D100230BE0B7F90630002BB4
:104AB00005DDB7F90630632B01DC642301E0B7F9AB
:104AC000063018460C37BD465DF8047B7047000081
:104AD00080B400AF0A4B1B6800225A63094B1B6865
:104AE00000225A63084B1B6800225A63064B1B685E
:104AF00000229A6300BFBD465DF8047B704700BF8B
:104B000098060020500600200806002080B483B0DC
:104B100000AF78607B684FF000025A607B684FF00E
:104B200000021A607B684FF00002DA6100BF0C37A8
:104B3000BD465DF8047B704780B584B000AFF86077
:104B400087ED020AC7ED010A87ED001AF868FFF742
:104B5000DDFFFB68BA689A60FB687A68DA60FB6818
:104B60003A681A61FB68064A5A61FB68054A9A610D
:104B7000FB684FF07E521A6200BF1037BD4680BD01
:104B8000002474C90024744980B487B000AFF86071
:104B900087ED020AC7ED010AD7ED017AF5EEC07A7A
:104BA000F1EE10FA02D84FF07E537B60FB6893ED74
:104BB000017AD7ED026AD7ED017A66EEA77A77EE31
:104BC000277AFB68C3ED017AFB6893ED017AFB68F5
:104BD000D3ED067AB4EEE77AF1EE10FA03DDFB6866
:104BE0009A69FB685A60FB6893ED017AFB68D3ED24
:104BF000057AB4EEE77AF1EE10FA03D5FB685A694C
:104C0000FB685A60FB68D3ED007A97ED027A77EE85
:104C1000676A97ED017AC6EE877AC7ED057AFB6879
:104C200093ED077AFB68D3ED086AFB68D3ED077A4A
:104C300097ED056A76EE677A66EEA77A77EE277AC1
:104C4000FB68C3ED077AFB68BA681A60FB6893EDEE
:104C5000027AD7ED027A27EE277AFB68D3ED036A52
:104C6000FB68D3ED017A66EEA77A37EE277AFB6808
:104C7000D3ED046AFB68D3ED077A66EEA77A77EE88
:104C8000277AB0EE670A1C37BD465DF8047B704793
:104C900080B485B000AF87ED030AC7ED020A87ED47
:104CA000011A97ED037AD7ED027A27EE277AF7EE0D
:104CB000006AD7ED037A76EEE76AD7ED017A66EE01
:104CC000A77A77EE277AB0EE670A1437BD465DF80B
:104CD000047B7047000000002DE9F04385B000AF71
:104CE0003D4B1B683A1D11461846FCF709FC002392
:104CF000FB732DE0DFED396AFB7B394A9B001344DF
:104D0000D3ED007AFB7B9B0010333B440C3B93EDCF
:104D1000007AFE7BB0EE471AF0EE670AB0EE660A44
:104D2000FFF7B6FFF0EE407AB30010333B440C3B84
:104D3000C3ED007AFA7BFB7B920010323A440C3AC6
:104D4000126827499B000B441A60FB7B0133FB73FD
:104D5000FB7B012BCED93B1D1846FDF787FABB68BC
:104D60001846FBF7F1FB804689467B681846FBF73F
:104D7000EBFB02460B4643EC112B49EC108B09F080
:104D800003FB53EC102B144683F000454FF0000258
:104D9000144B20462946FBF72FFC02460B461046D3
:104DA00019460BA3D3E90023FBF750FD02460B463F
:104DB00010461946FBF7F8FE034607EE903AB0EEB0
:104DC000670A1437BD46BDE8F08300BFAFF300802B
:104DD000182D4454FB210940880C00206666663F6C
:104DE000740C00200080664080B586B000AFF8608B
:104DF000B9607A603B601C4AFB6813601B4ABB6861
:104E000013601B4A7B6813601A4A3B681360164B99
:104E10001868002200230021FCF78CF9124B1B6854
:104E200015491846FCF76CFB3B684FF000021A620C
:104E30003B684FF00002DA623B68DA6A3B689A62CC
:104E40003B689A6A3B685A62FFF746FF87ED050A9E
:104E50003B687A691A6397ED050AFCF7A1FB00BF6E
:104E60001837BD4680BD00BF880C00208C0C002088
:104E7000900C0020940C0020740C002080B500AF32
:104E8000002204210B4802F0F9F90520FDF7A0F8F3
:104E900001220421074802F0F1F90A20FDF798F8F1
:104EA00000220421034802F0E9F901F071F800BF83
:104EB00080BD00BF000C024090B585B000AF87ED0B
:104EC000010AD7ED017A9FED157A27EE877AF0EE89
:104ED000006AC7EE267AC7ED037A114AFB681360B1
:104EE00001F00CF903460F4A13609FED0F7A0F4B48
:104EF0001B68D3ED027A0D4B1C6897ED031AF0EE98
:104F0000670AB0EE470AFFF7C3FEF0EE407AC4ED41
:104F1000027A00BF1437BD4690BD00BF00FC0547B4
:104F2000800C0020840C0020E17A143F940C0020B7
:104F300080B584B000AF0346FB80FB8807EE903A53
:104F4000F8EE677A9FED2A7AC7EE876A16EE900A26
:104F5000FBF7FAFA02460B469FED1F1B43EC102BA2
:104F600009F014FA53EC102B10461946FBF71CFEFF
:104F70000346BB60B868FBF7E7FA19A3D3E900233F
:104F8000FBF7ACFD0346002B01D01A4B10E0B868CC
:104F9000FBF7DAFA02460B4613A1D1E90001FBF751
:104FA00055FC02460B4610461946FBF7FDFD03462D
:104FB000FB60D7ED037AB1EE087AF4EEC77AF1EE32
:104FC00010FA01D50C4BFB60FB6807EE903AB0EE8F
:104FD000670A1037BD4680BD04560E2DB29DF33FC3
:104FE00078F35487DC0CB73F4BEA04341136194090
:104FF00000F07F4500008C420000C04090B583B0B7
:1050000000AF424B1B68184601F0ECF83F4B1B68A1
:105010004FF0FF31184601F0EAF90346002B08D1A2
:105020003A4B1B68184601F07DFB03469AB2384B99
:105030001A80364B1B68184601F0A6F9354B1B68E1
:10504000184601F0CFF8334B1B684FF0FF3118467C
:1050500001F0CDF90346002B08D12E4B1B681846F2
:1050600001F060FB03469AB2294B5A80294B1B681A
:10507000184601F089F9264B1B881846FFF758FFA0
:1050800087ED010A224B5B881846FFF751FF87ED39
:10509000000A214B1B78002B0BD1204B1B687A6830
:1050A0001A601E4B1B683A685A601B4B01221A702B
:1050B00027E09FED1B7A194B1B68D3ED007A174B45
:1050C0001C6897ED011AF0EE670AB0EE470AFFF789
:1050D000DFFDF0EE407AC4ED007A9FED117A0F4BC0
:1050E0001B68D3ED017A0D4B1C6897ED001AF0EEAA
:1050F000670AB0EE470AFFF7CBFDF0EE407AC4ED49
:10510000017A00BF0C37BD4690BD00BF8C0C00205B
:105110007C0C0020900C0020980C0020940C0020A7
:10512000CDCC4C3F80B582B000AF0D4B186800224B
:105130003B1D0021FCF784F897ED017A094B1B68B1
:10514000D3ED087A37EE677A064B1B68DFED066A07
:10515000C7EE267AC3ED037A00BF0837BD4680BD8F
:10516000880C0020940C002000007A4480B584B0A4
:1051700000AF194B186800223B460021FCF7E0F80D
:105180000023FB6020E0FB689B0010333B44103B96
:1051900093ED007A114B1A68FB6808339B001344A7
:1051A0000433D3ED007A77EE677A0C4B1A689FEDE3
:1051B0000C7A67EE877AFB6804339B001344C3EDD7
:1051C000007AFB680133FB60FB68022BDBDD00BF6C
:1051D00000BF1037BD4680BD880C0020940C002015
:1051E000A889803A80B58CB000AF0346FB804FF0B1
:1051F0000003BB624FF000037B6207F1180300223B
:105200001A605A609A600023FB8541E0414B1868A0
:10521000002207F124030021FCF712F8D7ED097AE8
:1052200097ED0A7A77EE277AC7ED0A7A394B186834
:10523000002207F10C030021FCF782F8002387F815
:105240002D301EE097F82D309B0030333B44183B47
:1052500093ED007A97F82D309B0030333B44243B8C
:10526000D3ED007A97F82D3077EE277A9B00303314
:105270003B44183BC3ED007A97F82D30013387F893
:105280002D3097F82D30022BDCD9FB8D0133FB85B7
:10529000FA8DFB889A42B9D3FB8807EE903AB8EEB4
:1052A000E77A1D4B1B68D7ED0A6AC6EE877AC3ED15
:1052B000087A0023FB8519E0FB8D9B0030333B44CB
:1052C000183BD3ED006AFB8807EE903AB8EEE77A18
:1052D000114B1A68FB8DC6EE877A08339B00134486
:1052E0000433C3ED007AFB8D0133FB85FB8D022B6C
:1052F000E2D9094B1B68D3ED0B7A074B1B689FED76
:10530000077A77EEC77AC3ED0B7A00BF3037BD4618
:1053100080BD00BF880C0020940C0020A889803A32
:1053200080B582B000AF7860054A7B6813600421C5
:10533000786803F097FD00BF0837BD4680BD00BF09
:105340009C0C002080B483B000AF7860054B1B68D4
:105350001B687A689A6300BF0C37BD465DF8047B12
:10536000704700BF9C0C002080B58AB000AF87ED6D
:10537000010AD7ED017ABBEE0A7AF4EEC77AF1EEB4
:1053800010FA01D55D4B7B60D7ED017AB3EE0A7A56
:10539000F4EEC77AF1EE10FA01DD594B7B60594B00
:1053A000D3ED007A97ED017AB4EEE77AF1EE10FAD8
:1053B0000DD8544BD3ED017AB6EE007A77EE877AAA
:1053C000FCEEE77A17EE900AFFF7BCFF92E04D4B38
:1053D000D3ED647A97ED017AB4EEE77AF1EE10FA44
:1053E0000DDB484BD3ED657AB6EE007A77EE877A1F
:1053F000FCEEE77A17EE900AFFF7A4FF7AE00023AD
:1054000087F8273065E097F827303E4ADB001344E1
:105410001B683B6297F8273001333A4ADB0013449C
:105420001B68FB6197ED017AD7ED087AB4EEE77A55
:10543000F1EE10FA48DB97ED017AD7ED077AB4EE7A
:10544000E77AF1EE10FA3FD897F827302D4ADB00C3
:10545000134404331B68BB6197F827300133294A92
:10546000DB00134404331B687B6197ED017AD7EDB1
:10547000087A77EE676A97ED077AD7ED087A37EE04
:10548000677AC6EE877AC7ED047A97ED057AD7ED8D
:10549000067A37EE677AD7ED047A67EE277A97EDCA
:1054A000067A77EE277AC7ED037AD7ED037AB6EE60
:1054B000007A77EE877AFCEEE77A17EE903ABB60D7
:1054C000B868FFF73FFF15E097F82730013387F8FA
:1054D000273097F82730312B95D90A4BD3ED657AD1
:1054E000B6EE007A77EE877AFCEEE77A17EE900A4E
:1054F000FFF728FF2837BD4680BD00BF0000D0C1A0
:105500000000D0410000002080B483B000AF002331
:105510007B60104B5B6C0F4A43F4804353640D4B2C
:105520005B6C03F480437B607B6800233B60094B2A
:105530001B6C084A43F080531364064B1B6C03F04A
:1055400080533B603B6800BF0C37BD465DF8047B71
:10555000704700BF0038024080B58CB000AF786063
:1055600007F11C0300221A605A609A60DA601A611F
:105570007B681B68364A934230D10023BB61354BB0
:105580005B6C344A43F480735364324B5B6C03F4BA
:105590008073BB61BB6900237B612E4B1B6B2D4A63
:1055A00043F0010313632B4B1B6B03F001037B617F
:1055B0007B691023FB6103233B6200237B6207F1BD
:1055C0001C031946244801F0A5FC002200211220EA
:1055D00001F0D7FB122001F0F0FB34E07B681B6880
:1055E0001E4A93422FD100233B611A4B5B6C194A30
:1055F00043F400735364174B5B6C03F400733B611B
:105600003B690023FB60134B1B6B124A43F0010301
:105610001363104B1B6B03F00103FB60FB6820233B
:10562000FB6103233B6200237B6207F11C031946E5
:10563000094801F06FFC00220021122001F0A1FBBB
:10564000122001F0BAFB00BF3037BD4680BD00BF5D
:1056500000200140003802400000024000210140CB
:1056600080B58AB000AF786007F1140300221A6099
:105670005A609A60DA601A617B681B68194A934223
:105680002CD100233B61184B1B6B174A43F00203DC
:105690001363154B1B6B03F002033B613B694FF433
:1056A00040637B611223BB610023FB6103233B62E8
:1056B00004237B6207F1140319460C4801F02AFC0D
:1056C0000023FB60084B1B6C074A43F48003136400
:1056D000054B1B6C03F48003FB60FB6800BF28379D
:1056E000BD4680BD00580040003802400004024022
:1056F00080B590B000AF786007F12C0300221A60EB
:105700005A609A60DA601A617B681B68594A934252
:105710002DD10023BB62584B5B6C574A43F0010309
:105720005364554B5B6C03F00103BB62BB6A0023FF
:105730007B62514B1B6B504A43F0100313634E4B7B
:105740001B6B03F010037B627B6A4FF40073FB62F8
:1057500002233B6300237B630023BB630123FB63C2
:1057600007F12C031946454801F0D4FB7EE07B6825
:105770001B68434A93420ED100233B623E4B1B6C95
:105780003D4A43F0100313643B4B1B6C03F01003C2
:105790003B623B6A6AE07B681B683A4A934216D1D7
:1057A0000023FB61344B1B6C334A43F0200313642A
:1057B000314B1B6C03F02003FB61FB6900220021CD
:1057C000372001F0DEFA372001F0F7FA4EE07B686F
:1057D0001B682D4A93420ED10023BB61264B5B6CA4
:1057E000254A43F480335364234B5B6C03F48033CA
:1057F000BB61BB693AE07B681B68244A93420ED1C7
:1058000000237B611C4B5B6C1B4A43F400335364E5
:10581000194B5B6C03F400337B617B6926E07B688A
:105820001B681B4A93420ED100233B61124B5B6CF9
:10583000114A43F4802353640F4B5B6C03F48023C1
:105840003B613B6912E07B681B68124A93420DD1B1
:105850000023FB60084B1B6C074A43F040031364B2
:10586000054B1B6C03F04003FB60FB6800BF403737
:10587000BD4680BD000001400038024000100240DB
:10588000001000400014004000400140004401406E
:10589000004801400018004080B58CB000AF78602F
:1058A00007F11C0300221A605A609A60DA601A61DC
:1058B0007B681B68B3F1804F4BD10023BB613F4B2A
:1058C0001B6C3E4A43F0010313643C4B1B6C03F01A
:1058D0000103BB61BB6900237B61384B1B6B374AFB
:1058E00043F001031363354B1B6B03F001037B6132
:1058F0007B6900233B61314B1B6B304A43F0020351
:1059000013632E4B1B6B03F002033B613B694FF4A7
:105910000043FB6102233B6200237B620023BB62E6
:105920000123FB6207F11C031946254801F0F2FA36
:105930000823FB6102233B6200237B620023BB62DE
:105940000123FB6207F11C0319461E4801F0E2FA2D
:1059500030E07B681B681C4A93422BD10023FB601C
:10596000164B1B6C154A43F002031364134B1B6C5C
:1059700003F00203FB60FB680023BB600F4B1B6B53
:105980000E4A43F0020313630C4B1B6B03F002033C
:10599000BB60BB683023FB6102233B6201237B6257
:1059A0000223BB620223FB6207F11C031946054870
:1059B00001F0B0FA00BF3037BD4680BD003802406C
:1059C00000000240000402400004004080B58CB09A
:1059D00000AF786007F11C0300221A605A609A60D9
:1059E000DA601A617B681B68494A93421ED1002322
:1059F000BB61484B1B6B474A43F010031363454B95
:105A00001B6B03F01003BB61BB696023FB610223C6
:105A10003B6200237B620223BB620323FB6207F12C
:105A20001C0319463C4801F075FA6DE07B681B6861
:105A30003A4A93421FD100237B61364B1B6B354A98
:105A400043F002031363334B1B6B03F002037B61D0
:105A50007B694FF48073FB6102233B6200237B620E
:105A60000223BB620323FB6207F11C0319462C4887
:105A700001F050FA48E07B681B682A4A93421FD124
:105A800000233B61234B1B6B224A43F00203136349
:105A9000204B1B6B03F002033B613B694FF4007327
:105AA000FB6102233B6200237B620223BB62032370
:105AB000FB6207F11C031946194801F02BFA23E099
:105AC0007B681B68184A93421ED10023FB60114B70
:105AD0001B6B104A43F0020313630E4B1B6B03F066
